{
  "contractName": "digitalID",
  "abi": [
    {
      "inputs": [
        {
          "internalType": "string",
          "name": "",
          "type": "string"
        }
      ],
      "name": "userInfo",
      "outputs": [
        {
          "internalType": "string",
          "name": "userName",
          "type": "string"
        }
      ],
      "stateMutability": "view",
      "type": "function",
      "constant": true
    },
    {
      "inputs": [
        {
          "internalType": "string",
          "name": "_userName",
          "type": "string"
        },
        {
          "internalType": "string",
          "name": "_documentName",
          "type": "string"
        }
      ],
      "name": "getDocumentHashHistory",
      "outputs": [
        {
          "internalType": "string[]",
          "name": "",
          "type": "string[]"
        }
      ],
      "stateMutability": "view",
      "type": "function",
      "constant": true
    },
    {
      "inputs": [
        {
          "internalType": "string",
          "name": "_userName",
          "type": "string"
        },
        {
          "internalType": "string",
          "name": "_documentName",
          "type": "string"
        },
        {
          "internalType": "string",
          "name": "_documentHash",
          "type": "string"
        }
      ],
      "name": "addDocumentHash",
      "outputs": [],
      "stateMutability": "nonpayable",
      "type": "function"
    }
  ],
  "bytecode": "0x608060405234801561001057600080fd5b50610693806100206000396000f3fe608060405234801561001057600080fd5b50600436106100415760003560e01c80630229a0081461004657806320074ffa1461005b578063691a87f914610084575b600080fd5b61005961005436600461040a565b6100a4565b005b61006e610069366004610492565b61010e565b60405161007b919061054e565b60405180910390f35b6100976100923660046105b0565b610225565b60405161007b91906105ed565b6000836040516100b49190610607565b9081526020016040518091039020600101826040516100d39190610607565b9081526040516020918190038201902080546001810182556000918252908290208351610108939190920191908401906102ce565b50505050565b60606000836040516101209190610607565b90815260200160405180910390206001018260405161013f9190610607565b9081526020016040518091039020805480602002602001604051908101604052809291908181526020016000905b8282101561021957838290600052602060002001805461018c90610623565b80601f01602080910402602001604051908101604052809291908181526020018280546101b890610623565b80156102055780601f106101da57610100808354040283529160200191610205565b820191906000526020600020905b8154815290600101906020018083116101e857829003601f168201915b50505050508152602001906001019061016d565b50505050905092915050565b805160208183018101805160008252928201919093012091528054819061024b90610623565b80601f016020809104026020016040519081016040528092919081815260200182805461027790610623565b80156102c45780601f10610299576101008083540402835291602001916102c4565b820191906000526020600020905b8154815290600101906020018083116102a757829003601f168201915b5050505050905081565b8280546102da90610623565b90600052602060002090601f0160209004810192826102fc5760008555610342565b82601f1061031557805160ff1916838001178555610342565b82800160010185558215610342579182015b82811115610342578251825591602001919060010190610327565b5061034e929150610352565b5090565b5b8082111561034e5760008155600101610353565b634e487b7160e01b600052604160045260246000fd5b600082601f83011261038e57600080fd5b813567ffffffffffffffff808211156103a9576103a9610367565b604051601f8301601f19908116603f011681019082821181831017156103d1576103d1610367565b816040528381528660208588010111156103ea57600080fd5b836020870160208301376000602085830101528094505050505092915050565b60008060006060848603121561041f57600080fd5b833567ffffffffffffffff8082111561043757600080fd5b6104438783880161037d565b9450602086013591508082111561045957600080fd5b6104658783880161037d565b9350604086013591508082111561047b57600080fd5b506104888682870161037d565b9150509250925092565b600080604083850312156104a557600080fd5b823567ffffffffffffffff808211156104bd57600080fd5b6104c98683870161037d565b935060208501359150808211156104df57600080fd5b506104ec8582860161037d565b9150509250929050565b60005b838110156105115781810151838201526020016104f9565b838111156101085750506000910152565b6000815180845261053a8160208601602086016104f6565b601f01601f19169290920160200192915050565b6000602080830181845280855180835260408601915060408160051b870101925083870160005b828110156105a357603f19888603018452610591858351610522565b94509285019290850190600101610575565b5092979650505050505050565b6000602082840312156105c257600080fd5b813567ffffffffffffffff8111156105d957600080fd5b6105e58482850161037d565b949350505050565b6020815260006106006020830184610522565b9392505050565b600082516106198184602087016104f6565b9190910192915050565b600181811c9082168061063757607f821691505b60208210810361065757634e487b7160e01b600052602260045260246000fd5b5091905056fea264697066735822122067d7928a92507d6cc9040ca955ee88451ede7417f50904fe29569fb4ffc5025064736f6c634300080d0033",
  "immutableReferences": {},
  "source": "// SPDX-License-Identifier: MIT\r\npragma solidity >=0.4.22 <0.9.0;\r\n\r\n/// @title Digital ID\r\n/// @author Nikhil Ghule\r\n/// @notice Adds new document hashes to blockchain and maintains history of all documents\r\n/// @dev Explain to a developer any extra details\r\n\r\ncontract digitalID {\r\n    \r\n    struct ID {\r\n        string userName;\r\n        mapping (string => string[]) documentsHash;\r\n    }\r\n\r\n    mapping (string => ID) public userInfo;\r\n\r\n    function getDocumentHashHistory(string memory _userName, string memory _documentName) public view returns (string[] memory) {\r\n        return userInfo[_userName].documentsHash[_documentName];\r\n    }\r\n\r\n    function addDocumentHash(string memory _userName, string memory _documentName, string memory _documentHash) public {\r\n        userInfo[_userName].documentsHash[_documentName].push(_documentHash);\r\n    }\r\n}\r\n\r\n",
  "sourcePath": "C:\\Users\\LENOVO\\Desktop\\BlockID\\Blockchain-Based-Digital-Identity\\contracts\\digitalID.sol",
  "compiler": {
    "name": "solc",
    "version": "0.8.13+commit.abaa5c0e.Emscripten.clang"
  },
  "schemaVersion": "3.4.7",
  "updatedAt": "2022-05-14T16:16:32.038Z",
  "networkType": "ethereum",
  "devdoc": {
    "author": "Nikhil Ghule",
    "details": "Explain to a developer any extra details",
    "kind": "dev",
    "methods": {},
    "title": "Digital ID",
    "version": 1
  },
  "userdoc": {
    "kind": "user",
    "methods": {},
    "notice": "Adds new document hashes to blockchain and maintains history of all documents",
    "version": 1
  }
}